:100000000C9434010C945C010C945C010C945C0124
:100010000C945C010C945C010C945C010C945C01EC
:100020000C945C010C945C010C945C010C945C01DC
:100030000C945C010C945C010C945C010C945C01CC
:100040000C94E3060C945C010C940C040C94E603F1
:100050000C945C010C945C010C945C010C945C01AC
:100060000C943E040C945C01000102031011121365
:1000700020212223303132330405060714151617C8
:10008000242526273435363708090A0B18191A1B78
:1000900028292A2B38393A3B0C0D0E0F1C1D1E1F28
:1000A0002C2D2E2F3C3D3E3F404142435051525358
:1000B0006061626370717273444546475455565788
:1000C000646566677475767748494A4B58595A5B38
:1000D00068696A6B78797A7B4C4D4E4F5C5D5E5FE8
:1000E0006C6D6E6F7C7D7E7F000102031011121318
:1000F000040506071415161708090A0B18191A1B08
:100100000C0D0E0F1C1D1E1F2021222330313233F7
:10011000242526273435363728292A2B38393A3BE7
:100120002C2D2E2F3C3D3E3F00102030011121315F
:100130000212223203132333405060704151617127
:1001400042526272435363738090A0B08191A1B117
:100150008292A2B28393A3B3C0D0E0F0C1D1E1F107
:10016000C2D2E2F2C3D3E3F30414243405152535D7
:1001700006162636071727374454647445556575A7
:1001800046566676475767778494A4B48595A5B597
:100190008696A6B68797A7B7C4D4E4F4C5D5E5F587
:1001A000C6D6E6F6C7D7E7F7001020300111213197
:1001B00002122232031323334050607041516171A7
:1001C0004252627243536373041424340515253577
:1001D0000616263607172737445464744555657547
:1001E00046566676475767770704022205060001E0
:1001F00003103021131211313A37353428292324C2
:10020000161B11100E0D0C02010204080000000064
:10021000240027002A0000000000250028002B00F1
:100220000000000023002600290004040404040444
:100230000404020202020202030303030303010295
:100240000408102040800102040810200102040864
:100250001020000000080002010000030407000055
:10026000000000000000B90A11241FBECFEFD8E043
:10027000DEBFCDBF11E0A0E0B1E0E2EDF6E102C0EB
:1002800005900D92A634B107D9F723E0A6E4B1E0BA
:1002900001C01D92A734B207E1F711E0C4E3D1E039
:1002A00004C02197FE010E945C0BC333D107C9F73C
:1002B0000E942D070C94670B0C940000089508957C
:1002C000CF92DF92EF92FF920F931F93CF93DF9322
:1002D0006C017A018B01C0E0D0E0CE15DF0581F022
:1002E000D8016D918D01D601ED91FC910190F081C5
:1002F000E02DC6010995892B11F02196EECF7E01E4
:10030000C701DF91CF911F910F91FF90EF90DF9088
:10031000CF900895FC01538D448D252F30E0842F1C
:1003200090E0821B930B541710F0CF96089501971D
:100330000895FC01918D828D981761F0828DDF0107
:10034000A80FB11D5D968C91928D9F5F9F73928FC8
:1003500090E008958FEF9FEF0895FC01918D828DBD
:10036000981731F0828DE80FF11D858D90E008958A
:100370008FEF9FEF0895FC01918D228D892F90E0E2
:10038000805C9F4F821B91098F73992708958FE09E
:1003900092E00E94BB0121E0892B09F420E0822F2A
:1003A0000895FC01848DDF01A80FB11DA35ABF4F32
:1003B0002C91848D90E001968F739927848FA68964
:1003C000B7892C93A089B1898C91837080648C93B8
:1003D000938D848D981306C00288F389E02D808167
:1003E0008F7D80830895EF92FF920F931F93CF9399
:1003F000DF93EC0181E0888F9B8D8C8D981305C075
:10040000E889F989808185FD26C0F62E0B8D10E0E4
:100410000F5F1F4F0F731127E02E8C8DE8120CC059
:100420000FB607FCFACFE889F989808185FFF5CFFF
:10043000CE010E94D101F1CF8B8DFE01E80FF11D9D
:10044000E35AFF4FF0829FB7F8940B8FEA89FB893C
:10045000808180620AC09FB7F894EE89FF8960832B
:10046000E889F98980818370806480839FBF81E0FF
:1004700090E0DF91CF911F910F91FF90EF90089541
:10048000CF93DF93EC01888D8823C9F0EA89FB893B
:10049000808185FD05C0A889B9898C9186FD0FC032
:1004A0000FB607FCF5CF808185FFF2CFA889B98907
:1004B0008C9185FFEDCFCE010E94D101E7CFDF9176
:1004C000CF91089580E090E0892B29F00E94C70128
:1004D00081110C940000089585ED8093BC008091FB
:1004E000BC0084FDFCCF1092EA01089540916601A2
:1004F000262F30E0240F311D21323105DCF420910C
:10050000EA012430C9F4FC0180E090E0861758F439
:10051000309166012191DC01AA5BBE4FA30FB11D92
:100520002C930196F3CF80916601680F609366016A
:1005300080E0089581E0089582E008950895E091B3
:100540008E0180918D01E81730F4F0E0E157FE4F05
:10055000808190E008958FEF9FEF089590918E0134
:1005600080918D01981750F4E92FF0E0E157FE4F8C
:10057000208130E09F5F90938E0102C02FEF3FEF0C
:10058000C901089580918D0190E020918E01821B18
:1005900091090895CF92DF92EF92FF920F931F93EC
:1005A000CF93DF937C01CB018A012091EB012223C1
:1005B00089F0EB016B01C40ED51ECC15DD0569F089
:1005C0006991D701ED91FC910190F081E02DC70177
:1005D0000995F3CF642F0E947602C801DF91CF9175
:1005E0001F910F91FF90EF90DF90CF900895CF93E0
:1005F000DF931F92CDB7DEB769832091EB012223F1
:10060000D1F020910E02203240F021E030E0FC01D8
:100610003383228380E090E015C08091EC01E82FC5
:10062000F0E0E351FE4F998190838F5F8093EC015E
:1006300080930E0205C061E0CE0101960E94760211
:1006400081E090E00F90DF91CF910895089580E0D0
:1006500090E00895603108F5E62FF0E0E850FE4F95
:10066000E491AE2FB0E024E0B595A7952A95E1F787
:10067000AA0FBB1FA80FB91FEF7081E090E002C066
:10068000880F991FEA95E2F7809590952D913C91FE
:100690001197822393238D939C9308959F92AF92F9
:1006A000BF92CF92DF92EF92FF920F931F93CF935F
:1006B000DF93A82E962EC0E0D0E0BB24B394EE24A6
:1006C000E394F12C082F10E0C8018C549E4F6C016C
:1006D0008091CD02803451F497E09A1508F470C0EF
:1006E000F801EC0FFD1FE851FF4F0BC0AFE0AA155A
:1006F00008F466C0FE01EE0FFF1FE00FF11FE8597E
:10070000FF4FE491911004C0D6018C918B2191F19F
:10071000E7FD44C08E2F82958F709091CC0289178F
:1007200008F03CC0EF70F0E0E850FE4F249190E0FC
:10073000880F991F84549D4FA22FB0E044E0B595D7
:10074000A7954A95E1F7AA0FBB1FFC018081918113
:10075000A80FB91FE22FEF70C70102C0880F991FC1
:10076000EA95E2F72D913C911197822B932B8D9373
:100770009C9314C0E7FD12C0AE2FA295AF7080917C
:10078000CC02A81758F46E2F6F70B0E0AA0FBB1FF1
:10079000A454BD4F8D919C910E942A03BB0C2896B6
:1007A000C034D10509F094CFDF91CF911F910F9103
:1007B000FF90EF90DF90CF90BF90AF909F90089503
:1007C0009110ECCFEFEFA0CF0E94620B1F920F921F
:1007D0000FB60F9211242F933F934F935F936F9314
:1007E0007F938F939F93AF93BF93EF93FF938FE08C
:1007F00092E00E94D101FF91EF91BF91AF919F9143
:100800008F917F916F915F914F913F912F910F90B9
:100810000FBE0F901F9018951F920F920FB60F9258
:1008200011242F938F939F93EF93FF93E0911F02D7
:10083000F09120028081E0912502F091260282FD54
:1008400012C09081809128028F5F8F7320912902BE
:10085000821751F0E0912802F0E0E15FFD4F958FA3
:100860008093280201C08081FF91EF919F918F9129
:100870002F910F900FBE0F901F9018951F920F92FF
:100880000FB60F9211242F933F934F935F936F9363
:100890007F938F939F93AF93BF93EF93FF93809139
:1008A000B900887F803609F49CC068F5883209F465
:1008B0005BC090F4803109F454C038F4882309F403
:1008C000F6C0883009F44DC0F6C0883109F44CC038
:1008D000803209F45DC0EFC0803409F468C048F488
:1008E000803309F455C0883309F0E5C08093E801EE
:1008F000D8C0803509F44FC0883509F45DC088340C
:1009000009F0D9C0D6C0883909F4C7C0A8F488371F
:1009100009F467C038F4883609F463C0803709F4F5
:1009200060C0C9C0883809F4B8C0803909F45FC014
:10093000803809F0C0C05BC0803B09F486C038F441
:10094000803A09F466C0883A09F47FC0B4C0803C9C
:1009500009F4A7C0883C09F4A4C0883B09F48AC004
:10096000AAC08091C50110C09091E7018091E60175
:10097000981770F5E091E70181E08E0F8093E70111
:10098000F0E0EA53FE4F80818093BB0085EC86C087
:100990008093E8018EC0E091E70181E08E0F8093A3
:1009A000E7018091BB00F0E0EA53FE4F8083909115
:1009B000E7018091E6016EC0E091E70181E08E0FD2
:1009C0008093E7018091BB00F0E0EA53FE4F808303
:1009D0008091E90181116DC081E08093C40184EAB6
:1009E00061C083E08093EA0110928801CFCF8091AB
:1009F0008801803208F051C0E091880181E08E0FBB
:100A0000809388018091BB00F0E0E859FE4F80831D
:100A1000BDCF85EC8093BC001092EA0180918801E3
:100A2000803230F4E0918801F0E0E859FE4F108206
:100A30006091880170E0E0918901F0918A0188E677
:100A400091E009951092880136C084E08093EA0114
:100A50001092670110926601E0918B01F0918C0178
:100A6000099580916601811105C081E0809366013E
:100A700010924601E091670181E08E0F809367013B
:100A8000F0E0EA5BFE4F80818093BB0090916701AC
:100A900080916601981708F479CF85E88093BC00AF
:100AA0000AC085EC8093BC001092EA0104C0109249
:100AB000E8010E946C02FF91EF91BF91AF919F916D
:100AC0008F917F916F915F914F913F912F910F90F7
:100AD0000FBE0F901F901895833081F028F481305D
:100AE00099F08230A1F008958730A9F08830B9F0EC
:100AF0008430D1F4809180008F7D03C0809180008C
:100B00008F7780938000089584B58F7702C084B575
:100B10008F7D84BD08958091B0008F7703C0809150
:100B2000B0008F7D8093B0000895682F8CEA92E02A
:100B30000C94F70230910E02313208F04BC08091D4
:100B4000EA018111FCCF90910D0222E02093EA018D
:100B500021E02093E9012FEF2093E8011092E701B3
:100B60003093E601EDEEF1E0A6ECB1E020E03217C3
:100B700021F041914D932F5FFACF1092C501209142
:100B8000C501990F922B9093C5019091C4019130AA
:100B900061F41092C4019091C5019093BB009091B3
:100BA000BC0093FDF8CF95EC01C095EE9093BC008E
:100BB0009091EA019230E1F39091E8019F3F79F042
:100BC0008091E801803241F08091E801803331F07A
:100BD00084E005C081E003C082E001C083E01092A0
:100BE000EC0110920E021092EB010895CF92DF9269
:100BF000EF92FF920F931F93CF93DF9310E001E0EA
:100C00008091CC02181780F5E12FF0E0EE0FFF1F66
:100C1000E454FD4FC081D181209721F18C8D009348
:100C2000EB0180930D021092EC0110920E0260E035
:100C30008CEA92E00E94F7027E0180E1E80EF11C4E
:100C40006E0168818CEA92E00E94F7022296F6011A
:100C500061818CEA92E00E94F702EC16FD0681F7B2
:100C60000E949A051F5FCCCFDF91CF911F910F910A
:100C7000FF90EF90DF90CF900895CF93C62F682F0D
:100C80008FE092E00E94F3016C2F8FE092E00E94CF
:100C9000F3016FE78FE092E0CF910C94F301CF93D3
:100CA000DF93282F30E0F901EE5AFD4F8491F901CE
:100CB000E25CFD4FD491F901E65DFD4FC491CC2378
:100CC00091F081110E946C05EC2FF0E0EE0FFF1FF8
:100CD000E05EFD4FA591B491EC91ED2381E090E0B1
:100CE00021F480E002C080E090E0DF91CF91089590
:100CF0001F93CF93DF93282F30E0F901EE5AFD4F79
:100D00008491F901E25CFD4FD491F901E65DFD4F5C
:100D1000C491CC23C1F0162F81110E946C05EC2FD9
:100D2000F0E0EE0FFF1FEA5EFD4FA591B4919FB773
:100D3000F894111104C08C91D095D82302C0EC9185
:100D4000DE2BDC939FBFDF91CF911F910895CF934E
:100D5000DF9390E0FC01E25CFD4F2491FC01E65D35
:100D6000FD4F8491882361F190E0880F991FFC0169
:100D7000E45FFD4FC591D491FC01EA5EFD4FA59162
:100D8000B491611109C09FB7F8948881209582239E
:100D90008883EC912E230BC0623061F49FB7F894E6
:100DA0008881322F309583238883EC912E2B2C93CE
:100DB0009FBF06C08FB7F894E8812E2B28838FBF82
:100DC000DF91CF9108951F920F920FB60F921124C9
:100DD0002F933F938F939F93AF93BF938091C001C5
:100DE0009091C101A091C201B091C3013091D20292
:100DF00023E0230F2D3720F40196A11DB11D05C05E
:100E000026E8230F0296A11DB11D2093D2028093E4
:100E1000C0019093C101A093C201B093C30180911E
:100E2000CE029091CF02A091D002B091D102019652
:100E3000A11DB11D8093CE029093CF02A093D0024A
:100E4000B093D102BF91AF919F918F913F912F911C
:100E50000F900FBE0F901F901895CF93DF93CDB7D3
:100E6000DEB728970FB6F894DEBF0FBECDBF7894DB
:100E700084B5826084BD84B5816084BD85B582609F
:100E800085BD85B5816085BD80916E008160809350
:100E90006E001092810080918100826080938100B9
:100EA00080918100816080938100809180008160C9
:100EB000809380008091B10084608093B100809124
:100EC000B00081608093B00080917A00846080934C
:100ED0007A0080917A00826080937A0080917A0013
:100EE000816080937A0080917A00806880937A0094
:100EF0001092C100E0911F02F091200282E08083F5
:100F0000E0911B02F0911C021082E0911D02F09111
:100F10001E028FE3808310922702E0912302F0915A
:100F2000240286E08083E0912102F09122028081F8
:100F300080618083E0912102F091220280818860AB
:100F40008083E0912102F091220280818068808379
:100F5000E0912102F091220280818F7D808342E125
:100F600050E06FE271E08FE092E00E94600142E0A9
:100F700050E062E471E08FE092E00E94600160E086
:100F800083E00E94A70661E083E00E94780660E0AB
:100F900084E00E94A70661E084E00E94780661E098
:100FA0008DE00E94A70680E7898381E78A8382E734
:100FB0008B8383E78C8384E78D8385E78E8386E745
:100FC0008F8387E78887E12CFF24F39448E4942EED
:100FD00055E4852E6EE5C62E61E0D62E7FE5A72E60
:100FE00071E0B72E8091CC02E81608F087C08E2DF4
:100FF00090E0FC01EE0FFF1FE454FD4F00811181D2
:101000000115110509F478C0E1E0F0E0EC0FFD1FD7
:10101000E80FF91F8081D8015C968C9310928E01A5
:1010200010928D011092EC0110920E021092EA01C2
:10103000F092E9011092C40161E082E10E94780619
:1010400061E083E10E9478068091B9008E7F8093F1
:10105000B9008091B9008D7F8093B9009092B8005B
:101060008092BC00D0928C01C0928B01B0928A0118
:10107000A0928901F801848DF092EB0180930D021A
:101080001092EC0110920E0281E290E00E94950510
:101090000E949A05D8015C968C91F092EB018093A6
:1010A0000D021092EC0110920E0281E890E00E9475
:1010B00095050E949A05F801848DF092EB018093CA
:1010C0000D021092EC0110920E028FEE90E00E9441
:1010D00095050E949A05D8015C968C91F092EB01DF
:1010E00080930D021092EC0110920E0281EA90E0C2
:1010F0000E9495050E949A05E39474CF80E090E1E8
:101100002091CC02821790F4E82FF0E0EE0FFF1F41
:10111000E454FD4F0190F081E02D309729F0DF017C
:10112000292F1D922A95E9F78F5FEACF0E94F605D5
:1011300088E0E4EBF1E0DF011D928A95E9F788246D
:1011400083948FB7F8944090C0015090C101609093
:10115000C2017090C3018FBF83E00E944F068C01D3
:1011600084E00E944F062091090130910A0108177E
:10117000190719F42F5F3F4F02C0215031093093F6
:101180000A01209309018091BC019091BD01A091B9
:10119000BE01B091BF01A3019201281B390B4A0B7C
:1011A0005B0B243131054105510508F45BC1D12C9D
:1011B000C12C05EC902E8091CC02D81608F090C07E
:1011C000ED2DF0E0EE0FFF1FE454FD4FE080F180C5
:1011D000E114F10409F482C0CC2019F0CC24C394AA
:1011E0007DC0570136E1A30EB11C8701005F1F4F80
:1011F00086E0F801D50101900D928A95E1F7D701BB
:101200005C968C918092EB0180930D021092EC0120
:1012100010920E0280E490E00E9495050E949A05CB
:10122000F701848D9091EA019111FCCF8092EA013F
:101230008092E901FFEFF093E8011092E70125E0C9
:101240002093E6018092C5019091C501880F892BFA
:101250008093C5018091C401813069F41092C4016A
:101260008091C5018093BB008091BC0083FDF8CFC5
:101270009092BC0003C035EE3093BC008091EA012F
:101280008130E1F38091E701863018F49091E70115
:1012900001C096E0A6ECB1E0EFE8F1E080E089174C
:1012A00021F02D9121938F5FFACF10928E018093C0
:1012B0008D0178018CEA92E00E94AE02D7018D93F5
:1012C0007D01AA16BB06B1F7F80196810F5F1F4F8B
:1012D0008081981383CFA016B106B1F7D3946BCF5A
:1012E000CC2009F4ACC0A8EACA2EA1E0DA2EB8E2FC
:1012F000AB2EB1E0BB2E00E010E08091CD02811753
:1013000058F0803411F4F60101C0F501E4919E2FEC
:1013100092959F70EF7002C0EFEF9FEF2E2E312C51
:10132000F101E85FFD4F2491A12FA295AF70312FFD
:101330003F708091CC02A81708F076C0632F70E050
:10134000FB01E851FE4F84919490B0E0AA0FBB1FBF
:10135000A454BD4F0D90BC91A02D482F50E0E4E067
:1013600055954795EA95E1F74A0F5B1FFA014089C9
:1013700050E08F7002C0559547958A95E2F7842F0B
:101380008170E92CF12CF4E0F594E794FA95E1F7FB
:10139000EA0EFB1EF701468950E0E92DEF7002C00E
:1013A00055954795EA95E2F74170481708F03CC01B
:1013B000E92FF0E0EC54FE4F8081922F982399F0B2
:1013C000209582238083632FCD010E942A03F1019F
:1013D000EE0FFF1FEF5FFE4F649170E080E890E03A
:1013E0000E943D0620C0282B2083FB01E850FE4FC1
:1013F000E4918E2F90E024E0959587952A95E1F76A
:10140000880F991FA80FB91FEF7081E090E002C00C
:10141000880F991FEA95E2F72D913C911197822B45
:10142000932B8D939C9301E01F5FFFEFCF1ADF0A90
:101430002FEFA21AB20A103209F05FCF01C000E00C
:101440004092BC015092BD016092BE017092BF01FA
:101450006091B3016F5F6093B30160728DE00E9491
:10146000780601C000E08091AF019091B001A09199
:10147000B101B091B201B301A201481B590B6A0B33
:101480007B0B8091B8029091B902A091BA02B09101
:10149000BB02481759076A077B0708F464C0B0907D
:1014A000000160E08B2D0E944E0301E011E0680115
:1014B00098E0A92E992493948B2D90E0AC014C5484
:1014C0005E4F7A01D7018C91892139F0F601649140
:1014D00070E080E890E00E943D06990CAA94F2E04A
:1014E000CF0ED11CA110EECF81E08B0D883018F407
:1014F0008093000102C010920001E090000161E0C1
:101500008E2D0E944E0388E0D82ECC24C3948E2DBD
:1015100090E09C012C543E4F7901D7018C918C2195
:1015200039F0F801649170E080E990E00E943D0696
:10153000CC0CDA940E5F1F4FD110EFCF4092AF0169
:101540005092B0016092B1017092B20128EE33E086
:1015500040E050E02093B8023093B9024093BA02C1
:101560005093BB0201C001110E94F6050E94620265
:10157000E8CD109212021092110288EE93E0A0E0E2
:10158000B0E08093130290931402A0931502B093DD
:1015900016022FE031E03093100220930F0225EC69
:1015A00030E030931C0220931B0224EC30E0309397
:1015B0001E0220931D0220EC30E030932002209385
:1015C0001F0221EC30E0309322022093210222EC12
:1015D00030E0309324022093230226EC30E0309355
:1015E00026022093250210922802109229021092BE
:1015F0002A0210922B021092AF021092AE02809338
:10160000B0029093B102A093B202B093B30281E210
:1016100091E09093AD028093AC0283ED92E09093C1
:10162000BD028093BC0280EF92E09093BF02809352
:10163000BE028DE093E09093C1028093C0028AE2E3
:1016400093E09093C3028093C2021092C50210925D
:10165000C4021092C7021092C6021092C9021092E0
:10166000C8021092CB021092CA021092CC02ECEB8C
:10167000F2E080E021913191232BD1F48093CC02D0
:1016800080E48093CD028AEF90E0A0E0B0E0809308
:10169000B8029093B902A093BA02B093BB028091B2
:1016A000090190910A01909302018093010108952C
:1016B0008F5F8830F9F6E2CFEE0FFF1F0590F491AF
:1016C000E02D099481E090E0F8940C94670BF89475
:0216D000FFCF4A
:1016D200070000250026002800320000000000F369
:1016E2000160018A014002BB019901AD01000000C5
:1016F20000F702CA0227039E02C202AE029F024DF7
:101702004944492D7365712044656D6F2D76302EE5
:0617120032000D0A000088
:107E0000112484B714BE81FFF0D085E080938100F7
:107E100082E08093C00088E18093C10086E0809377
:107E2000C20080E18093C4008EE0C9D0259A86E02C
:107E300020E33CEF91E0309385002093840096BBD3
:107E4000B09BFECF1D9AA8958150A9F7CC24DD24C4
:107E500088248394B5E0AB2EA1E19A2EF3E0BF2EE7
:107E6000A2D0813461F49FD0082FAFD0023811F036
:107E7000013811F484E001C083E08DD089C08234E0
:107E800011F484E103C0853419F485E0A6D080C0E4
:107E9000853579F488D0E82EFF2485D0082F10E0AE
:107EA000102F00270E291F29000F111F8ED06801E7
:107EB0006FC0863521F484E090D080E0DECF843638
:107EC00009F040C070D06FD0082F6DD080E0C81688
:107ED00080E7D80618F4F601B7BEE895C0E0D1E017
:107EE00062D089930C17E1F7F0E0CF16F0E7DF06D8
:107EF00018F0F601B7BEE89568D007B600FCFDCFD4
:107F0000A601A0E0B1E02C9130E011968C91119780
:107F100090E0982F8827822B932B1296FA010C0160
:107F200087BEE89511244E5F5F4FF1E0A038BF0790
:107F300051F7F601A7BEE89507B600FCFDCF97BE46
:107F4000E89526C08437B1F42ED02DD0F82E2BD052
:107F50003CD0F601EF2C8F010F5F1F4F84911BD097
:107F6000EA94F801C1F70894C11CD11CFA94CF0C13
:107F7000D11C0EC0853739F428D08EE10CD085E9AC
:107F80000AD08FE07ACF813511F488E018D01DD067
:107F900080E101D065CF982F8091C00085FFFCCF94
:107FA0009093C60008958091C00087FFFCCF809118
:107FB000C00084FD01C0A8958091C6000895E0E648
:107FC000F0E098E1908380830895EDDF803219F02E
:107FD00088E0F5DFFFCF84E1DECF1F93182FE3DFCA
:107FE0001150E9F7F2DF1F91089580E0E8DFEE27F6
:047FF000FF270994CA
:027FFE00040479
:0400000300007E007B
:00000001FF
