:100000000C9444010C946C010C946C010C946C01E4
:100010000C946C010C946C010C946C010C946C01AC
:100020000C946C010C946C010C946C010C946C019C
:100030000C946C010C946C010C946C010C946C018C
:100040000C94E1060C946C010C941C040C94F603C3
:100050000C946C010C946C010C946C010C946C016C
:100060000C944E040C946C01220936094F09360990
:100070001E094F09220922094F091E0936094F0995
:100080003609220900010203101112132021222334
:100090003031323304050607141516172425262798
:1000A0003435363708090A0B18191A1B28292A2B48
:1000B00038393A3B0C0D0E0F1C1D1E1F2C2D2E2FF8
:1000C0003C3D3E3F40414243505152536061626368
:1000D0007071727344454647545556576465666758
:1000E0007475767748494A4B58595A5B68696A6B08
:1000F00078797A7B4C4D4E4F5C5D5E5F6C6D6E6FB8
:100100007C7D7E7F00010203101112130405060797
:100110001415161708090A0B18191A1B0C0D0E0FC7
:100120001C1D1E1F20212223303132332425262777
:100130003435363728292A2B38393A3B2C2D2E2FA7
:100140003C3D3E3F0010203001112131021222328D
:100150000313233340506070415161714252627207
:10016000435363738090A0B08191A1B18292A2B2F7
:100170008393A3B3C0D0E0F0C1D1E1F1C2D2E2F2E7
:10018000C3D3E3F3041424340515253506162636A7
:100190000717273744546474455565754656667687
:1001A000475767778494A4B48595A5B58696A6B677
:1001B0008797A7B7C4D4E4F4C5D5E5F5C6D6E6F667
:1001C000C7D7E7F700102030011121310212223287
:1001D0000313233340506070415161714252627287
:1001E0004353637304142434051525350616263647
:1001F0000717273744546474455565754656667627
:1002000047576777070402220506000103103021D3
:10021000131211313A37353428292324161B1110B3
:100220000E0D0C0224252627010204080000000000
:10023000240027002A0000000000250028002B00D1
:100240000000000800020100000304070000000095
:100250000000000001020408102040800102040890
:1002600010200102040810200000000023002600D6
:100270002900040404040404040402020202020229
:10028000030303030303A60B11241FBECFEFD8E023
:10029000DEBFCDBF11E0A0E0B1E0EEE4FAE102C0C4
:1002A00005900D92A833B107D9F723E0A8E3B1E098
:1002B00001C01D92AF34B207E1F711E0C4E4D1E010
:1002C00004C02197FE010E94E40CC334D107C9F792
:1002D0000E942B070C94250D0C940000089508959E
:1002E000CF92DF92EF92FF920F931F93CF93DF9302
:1002F0006C017A018B01C0E0D0E0CE15DF0581F002
:10030000D8016D918D01D601ED91FC910190F081A4
:10031000E02DC6010995892B11F02196EECF7E01C3
:10032000C701DF91CF911F910F91FF90EF90DF9068
:10033000CF900895FC01538D448D252F30E0842FFC
:1003400090E0821B930B541710F0CF9608950197FD
:100350000895FC01918D828D981761F0828DDF01E7
:10036000A80FB11D5D968C91928D9F5F9F73928FA8
:1003700090E008958FEF9FEF0895FC01918D828D9D
:10038000981731F0828DE80FF11D858D90E008956A
:100390008FEF9FEF0895FC01918D228D892F90E0C2
:1003A000805C9F4F821B91098F739927089581E08C
:1003B00092E00E94CB0121E0892B09F420E0822FFA
:1003C0000895FC01848DDF01A80FB11DA35ABF4F12
:1003D0002C91848D90E001968F739927848FA68944
:1003E000B7892C93A089B1898C91837080648C9398
:1003F000938D848D981306C00288F389E02D808147
:100400008F7D80830895EF92FF920F931F93CF9378
:10041000DF93EC0181E0888F9B8D8C8D981305C054
:10042000E889F989808185FD26C0F62E0B8D10E0C4
:100430000F5F1F4F0F731127E02E8C8DE8120CC039
:100440000FB607FCFACFE889F989808185FFF5CFDF
:10045000CE010E94E101F1CF8B8DFE01E80FF11D6D
:10046000E35AFF4FF0829FB7F8940B8FEA89FB891C
:10047000808180620AC09FB7F894EE89FF8960830B
:10048000E889F98980818370806480839FBF81E0DF
:1004900090E0DF91CF911F910F91FF90EF90089521
:1004A000CF93DF93EC01888D8823C9F0EA89FB891B
:1004B000808185FD05C0A889B9898C9186FD0FC012
:1004C0000FB607FCF5CF808185FFF2CFA889B989E7
:1004D0008C9185FFEDCFCE010E94E101E7CFDF9146
:1004E000CF91089580E090E0892B29F00E94D701F8
:1004F00081110C940000089585ED8093BC008091DB
:10050000BC0084FDFCCF1092DC010895409158019D
:10051000262F30E0240F311D21323105DCF42091EB
:10052000DC012430C9F4FC0180E090E0861758F427
:10053000309158012191DC01A85CBE4FA30FB11D81
:100540002C930196F3CF80915801680F6093580166
:1005500080E0089581E0089582E008950895E09193
:10056000800180917F01E81730F4F0E0EF57FE4FF3
:10057000808190E008958FEF9FEF08959091800122
:1005800080917F01981750F4E92FF0E0EF57FE4F6C
:10059000208130E09F5F9093800102C02FEF3FEFFA
:1005A000C901089580917F0190E020918001821B14
:1005B00091090895CF92DF92EF92FF920F931F93CC
:1005C000CF93DF937C01CB018A012091DD012223AF
:1005D00089F0EB016B01C40ED51ECC15DD0569F069
:1005E0006991D701ED91FC910190F081E02DC70157
:1005F0000995F3CF642F0E948602C801DF91CF9145
:100600001F910F91FF90EF90DF90CF900895CF93BF
:10061000DF931F92CDB7DEB769832091DD012223DE
:10062000D1F020910002203240F021E030E0FC01C6
:100630003383228380E090E015C08091DE01E82FB3
:10064000F0E0E152FE4F998190838F5F8093DE014D
:100650008093000205C061E0CE0101960E948602EF
:1006600081E090E00F90DF91CF910895089580E0B0
:1006700090E00895603108F5E62FF0E0EC5EFD4F64
:10068000E491AE2FB0E024E0B595A7952A95E1F767
:10069000AA0FBB1FA80FB91FEF7081E090E002C046
:1006A000880F991FEA95E2F7809590952D913C91DE
:1006B0001197822393238D939C9308959F92AF92D9
:1006C000BF92CF92DF92EF92FF920F931F93CF933F
:1006D000DF93A82E962EC0E0D0E0BB24B394EE2486
:1006E000E394F12C082F10E0C8018A559E4F6C014D
:1006F0008091D502803451F497E09A1508F470C0C7
:10070000F801EC0FFD1FEC5FFE4F0BC0AFE0AA1528
:1007100008F466C0FE01EE0FFF1FE00FF11FEC575B
:10072000FF4FE491911004C0D6018C918B2191F17F
:10073000E7FD44C08E2F82958F709091D402891767
:1007400008F03CC0EF70F0E0EC5EFD4F249190E0CB
:10075000880F991F8C539D4FA22FB0E044E0B595B0
:10076000A7954A95E1F7AA0FBB1FFC0180819181F3
:10077000A80FB91FE22FEF70C70102C0880F991FA1
:10078000EA95E2F72D913C911197822B932B8D9353
:100790009C9314C0E7FD12C0AE2FA295AF7080915C
:1007A000D402A81758F46E2F6F70B0E0AA0FBB1FC9
:1007B000AC53BD4F8D919C910E943A03BB0C28967F
:1007C000C034D10509F094CFDF91CF911F910F91E3
:1007D000FF90EF90DF90CF90BF90AF909F900895E3
:1007E0009110ECCFEFEFA0CF0E94200D1F920F923F
:1007F0000FB60F9211242F933F934F935F936F93F4
:100800007F938F939F93AF93BF93EF93FF9381E079
:1008100092E00E94E101FF91EF91BF91AF919F9112
:100820008F917F916F915F914F913F912F910F9099
:100830000FBE0F901F9018951F920F920FB60F9238
:1008400011242F938F939F93EF93FF93E0911102C5
:10085000F09112028081E0911702F091180282FD5E
:1008600012C0908180911A028F5F8F7320911B02BA
:10087000821751F0E0911A02F0E0EF5FFD4F958F83
:1008800080931A0201C08081FF91EF919F918F9117
:100890002F910F900FBE0F901F9018951F920F92DF
:1008A0000FB60F9211242F933F934F935F936F9343
:1008B0007F938F939F93AF93BF93EF93FF93809119
:1008C000B900887F803609F49CC068F5883209F445
:1008D0005BC090F4803109F454C038F4882309F4E3
:1008E000F6C0883009F44DC0F6C0883109F44CC018
:1008F000803209F45DC0EFC0803409F468C048F468
:10090000803309F455C0883309F0E5C08093DA01DB
:10091000D8C0803509F44FC0883509F45DC08834EB
:1009200009F0D9C0D6C0883909F4C7C0A8F48837FF
:1009300009F467C038F4883609F463C0803709F4D5
:1009400060C0C9C0883809F4B8C0803909F45FC0F4
:10095000803809F0C0C05BC0803B09F486C038F421
:10096000803A09F466C0883A09F47FC0B4C0803C7C
:1009700009F4A7C0883C09F4A4C0883B09F48AC0E4
:10098000AAC08091B70110C09091D9018091D8017F
:10099000981770F5E091D90181E08E0F8093D9010D
:1009A000F0E0E854FE4F80818093BB0085EC86C068
:1009B0008093DA018EC0E091D90181E08E0F80939F
:1009C000D9018091BB00F0E0E854FE4F8083909104
:1009D000D9018091D8016EC0E091D90181E08E0FDC
:1009E0008093D9018091BB00F0E0E854FE4F8083F2
:1009F0008091DB0181116DC081E08093B60184EAB2
:100A000061C083E08093DC0110927A01CFCF8091A6
:100A10007A01803208F051C0E0917A0181E08E0FB6
:100A200080937A018091BB00F0E0E65AFE4F80830C
:100A3000BDCF85EC8093BC001092DC0180917A01DF
:100A4000803230F4E0917A01F0E0E65AFE4F1082F5
:100A500060917A0170E0E0917B01F0917C018AE580
:100A600091E0099510927A0136C084E08093DC0110
:100A70001092590110925801E0917D01F0917E0190
:100A8000099580915801811105C081E0809358013A
:100A900010923801E091590181E08E0F8093590145
:100AA000F0E0E85CFE4F80818093BB00909159019B
:100AB00080915801981708F479CF85E88093BC009D
:100AC0000AC085EC8093BC001092DC0104C0109237
:100AD000DA010E947C02FF91EF91BF91AF919F914B
:100AE0008F917F916F915F914F913F912F910F90D7
:100AF0000FBE0F901F901895682F8EE992E00C940E
:100B0000070330910002313208F04BC08091DC01C4
:100B10008111FCCF9091FF0122E02093DC0121E0C4
:100B20002093DB012FEF2093DA011092D90130934B
:100B3000D801EFEDF1E0A8EBB1E020E0321721F0B1
:100B400041914D932F5FFACF1092B7012091B701D9
:100B5000990F922B9093B7019091B601913061F467
:100B60001092B6019091B7019093BB009091BC0098
:100B700093FDF8CF95EC01C095EE9093BC00909159
:100B8000DC019230E1F39091DA019F3F79F080919E
:100B9000DA01803241F08091DA01803331F084E073
:100BA00005C081E003C082E001C083E01092DE0155
:100BB000109200021092DD010895CF92DF92EF9221
:100BC000FF920F931F93CF93DF9310E001E080918A
:100BD000D402181780F5E12FF0E0EE0FFF1FEC5361
:100BE000FD4FC081D181209721F18C8D0093DD01D3
:100BF0008093FF011092DE011092000260E08EE906
:100C000092E00E9407037E0180E1E80EF11C6E0174
:100C100068818EE992E00E9407032296F6016181C5
:100C20008EE992E00E940703EC16FD0681F70E9410
:100C300081051F5FCCCFDF91CF911F910F91FF9066
:100C4000EF90DF90CF900895CF93DF93009779F0E6
:100C5000FC0101900020E9F73197AF01481B590BC7
:100C6000BC0181E092E00E947001EC0102C0C0E092
:100C7000D0E042E050E064E371E081E092E00E9465
:100C800070018C0F9D1FDF91CF910895CF93C62FD8
:100C9000682F81E092E00E9403026C2F81E092E0D5
:100CA0000E9403026FE781E092E0CF910C9403026F
:100CB00090E0FC01E05CFD4F2491FC01EC5AFD4FFB
:100CC0003491FC01EE58FD4FE491EE2309F43CC051
:100CD000222339F1233091F038F42130A9F0223069
:100CE00001F584B58F7D12C0273091F02830A1F036
:100CF0002430B9F4809180008F7D03C08091800002
:100D00008F77809380000DC084B58F7784BD09C034
:100D10008091B0008F7703C08091B0008F7D809369
:100D2000B000F0E0EE0FFF1FEA5CFD4FA591B4911B
:100D30009FB7F894611104C08C913095382302C09C
:100D4000EC913E2B3C939FBF0895CF93DF9390E0AF
:100D5000FC01EC5AFD4F2491FC01EE58FD4F8491AB
:100D6000882361F190E0880F991FFC01E45DFD4F3D
:100D7000C591D491FC01EA5CFD4FA591B49161113C
:100D800009C09FB7F8948881209582238883EC91CD
:100D90002E230BC0623061F49FB7F8948881322F04
:100DA000309583238883EC912E2B2C939FBF06C014
:100DB0008FB7F894E8812E2B28838FBFDF91CF91D6
:100DC00008951F920F920FB60F9211242F933F9305
:100DD0008F939F93AF93BF938091B2019091B30192
:100DE000A091B401B091B5013091DA0223E0230F54
:100DF0002D3720F40196A11DB11D05C026E8230F53
:100E00000296A11DB11D2093DA028093B201909346
:100E1000B301A093B401B093B5018091D602909133
:100E2000D702A091D802B091D9020196A11DB11D9F
:100E30008093D6029093D702A093D802B093D902A0
:100E4000BF91AF919F918F913F912F910F900FBEC6
:100E50000F901F901895CF93DF93CDB7DEB72997EA
:100E60000FB6F894DEBF0FBECDBF789484B5826014
:100E700084BD84B5816084BD85B5826085BD85B53E
:100E8000816085BD80916E00816080936E001092BC
:100E90008100809181008260809381008091810037
:100EA00081608093810080918000816080938000C8
:100EB0008091B10084608093B1008091B000816026
:100EC0008093B00080917A00846080937A00809152
:100ED0007A00826080937A0080917A0081608093AA
:100EE0007A0080917A00806880937A001092C10025
:100EF000E0911102F091120282E08083E0910D02F4
:100F0000F0910E021082E0910F02F09110028FE337
:100F1000808310921902E0911502F091160286E08A
:100F20008083E0911302F0911402808180618083BC
:100F3000E0911302F0911402808188608083E09137
:100F40001302F0911402808180688083E091130283
:100F5000F091140280818F7D808387E291E00E946E
:100F6000240681E391E00E94240661E08DE00E9466
:100F7000A50680E7898381E78A8382E78B8383E7FD
:100F80008C8384E78D8385E78E8386E78F8387E76D
:100F90008887E12CFF24F39468E4962E75E4872E6D
:100FA000EEE6CE2EE1E0DE2EFFE6AF2EF1E0BF2E24
:100FB0008091D402E81608F087C08E2D90E0FC01E5
:100FC000EE0FFF1FEC53FD4F00811181011511053C
:100FD00009F478C0E1E0F0E0EC0FFD1FE80FF91F25
:100FE0008081D8015C968C931092800110927F01D1
:100FF0001092DE01109200021092DC01F092DB01EF
:101000001092B60161E082E10E94580661E083E13E
:101010000E9458068091B9008E7F8093B90080911C
:10102000B9008D7F8093B9009092B8008092BC0087
:10103000D0927E01C0927D01B0927C01A0927B0192
:10104000F801848DF092DD018093FF011092DE01A2
:101050001092000281E290E00E947C050E948105CE
:10106000D8015C968C91F092DD018093FF01109283
:10107000DE011092000281E890E00E947C050E944F
:101080008105F801848DF092DD018093FF011092BB
:10109000DE01109200028FEE90E00E947C050E941B
:1010A0008105D8015C968C91F092DD018093FF015F
:1010B0001092DE011092000281EA90E00E947C050D
:1010C0000E948105E39474CF8CE08093B80080E0A7
:1010D00090E12091D402821790F4E82FF0E0EE0F17
:1010E000FF1FEC53FD4F0190F081E02D309729F068
:1010F000DF01292F1D922A95E9F78F5FEACF0E9421
:10110000DD0588E0E6EAF1E0DF011D928A95E9F766
:101110000091AA021091AB0201151105C1F0F8016E
:101120008281811102C0F12C02C032E0F32E6F2DBA
:10113000D8018C910E94A5066F2DF80181810E9433
:10114000A506D80152960D911C915397E5CF80EFDB
:1011500090E09093BC028093BB0283E897E0909369
:10116000BE028093BD028091BF028E7F8093BF023A
:101170008091010190910201880F991F880F991F9A
:10118000803F91055CF480EF90E09093BA028093E9
:10119000B9023324339495E0292E0BC08438B7E08C
:1011A0009B079CF383E897E0F0CF0111CCC20E942B
:1011B00072028FB7F8944090B2015090B3016090E2
:1011C000B4017090B5018FBF2091AA023091AB029B
:1011D0002115310509F4B4C0F9018089880F880F01
:1011E000808B0380F481E02D4081D90117969C917A
:1011F0001797942319F0826050968C93D901159615
:10120000ED91FC911697908118968C9118978923EF
:1012100031F050968C915097816050968C93F901E3
:101220008089E82FEF708E2F90E0FC013197EE302F
:10123000F10520F4EC5CFF4F0C94E40CD9015196BD
:101240001C9278C0F90181859285019792878187E8
:101250004EEF418B43855485841795070CF06AC087
:10126000878580FF16C04585568513C0F9018185A5
:10127000928501969287818742E0418B458556850C
:10128000481759070CF056C0878580FF02C0438578
:101290005485D9011A965C934E9319974BC0F90166
:1012A000418981859285840F911D47FD9A9592878A
:1012B00081870384F485E02DD9018E179F07F4F40C
:1012C0001F964C911F9740FF13C01D960D911C91C6
:1012D0001E970196AF01481B590BCA01B8016E1B3E
:1012E0007F0B6F5F7F4F0E94B10CF801E81BF90B79
:1012F000D9011A96FC93EE9319971CC01D966D9117
:101300007C911E9768177907ACF41F964C9140FFAB
:101310000EC0AB014F5F5F4F841B950B6E1B7F0BA5
:101320006F5F7F4F0E94B10CBC016E0F7F1FF901F0
:1013300072876187D90152962D913C91539748CF7E
:101340008091AE019091AF01A091B001B091B10137
:10135000A3019201281B390B4A0B5B0B2431310589
:101360004105510508F45BC1D12CC12C05EE902E2E
:1013700085EC882E8091D402D81608F08EC0ED2D11
:10138000F0E0EE0FFF1FEC53FD4FE080F180E11421
:10139000F10409F480C0CC2019F0CC24C3947BC0A4
:1013A000570136E1A30EB11C8701005F1F4F86E095
:1013B000F801D50101900D928A95E1F7D7015C966D
:1013C0008C913092DD018093FF011092DE0110922A
:1013D000000280E490E00E947C050E948105F701F4
:1013E000848D9091DC019111FCCF3092DC01309220
:1013F000DB01FFEFF093DA011092D9012092D801BE
:101400003092B7019091B701880F892B8093B70173
:101410008091B601813069F41092B6018091B701D4
:101420008093BB008091BC0083FDF8CF8092BC000C
:1014300002C09092BC008091DC018130E1F3809188
:10144000D901863018F49091D90101C096E0A8EB3B
:10145000B1E0E1E8F1E080E0891721F02D912193DE
:101460008F5FFACF1092800180937F0178018EE91F
:1014700092E00E94BE02D7018D937D01AA16BB06A1
:10148000B1F7F80196810F5F1F4F8081981385CFC8
:10149000A016B106B1F7D3946DCFCC2009F4ACC03F
:1014A000A4ECCA2EA1E0DA2EB4E4AB2EB1E0BB2E40
:1014B00000E010E08091D502811758F0803411F4DB
:1014C000F60101C0F501E4919E2F92959F70EF7097
:1014D00002C0EFEF9FEF8E2E912CF401E85DFD4FDF
:1014E0002491A12FA295AF70312F3F708091D4022B
:1014F000A81708F076C0632F70E0FB01EC5FFD4F8A
:101500008491B491B987B0E0AA0FBB1FAC53BD4F13
:101510000D90BC91A02D482F50E0E4E055954795E3
:10152000EA95E1F74A0F5B1FFA01408950E08F709E
:1015300002C0559547958A95E2F7842F8170F98509
:10154000EF2EF12CF4E0F594E794FA95E1F7EA0E2A
:10155000FB1EF701468950E0E985EF7002C0559502
:101560004795EA95E2F74170481708F03AC0E92F2D
:10157000F0E0EA55FE4F8081922F982389F0209564
:1015800082238083632FCD010E943A03F401EC5D36
:10159000FD4F649170E080E890E00E94460620C014
:1015A000282B2083FB01EC5EFD4FE4918E2F90E011
:1015B00034E0959587953A95E1F7880F991FA80F24
:1015C000B91FEF7081E090E002C0880F991FEA9583
:1015D000E2F72D913C911197822B932B8D939C9345
:1015E00001E01F5FFFEFCF1ADF0A2FEFA21AB20A46
:1015F000103209F05FCF01C000E04092AE0150927E
:10160000AF016092B0017092B1016091A5016F5F6E
:101610006093A50160728DE00E94580601C000E051
:101620008091A1019091A201A091A301B091A40188
:10163000B301A201481B590B6A0B7B0B8091AC02D2
:101640009091AD02A091AE02B091AF024817590738
:101650006A077B0708F4A9CDB090000160E08B2DEC
:101660000E945E0304E212E0680128E0A22E9924A1
:1016700093948B2D90E0AC014A555E4F7A01D701CF
:101680008C91892139F0F601649170E080E890E056
:101690000E944606990CAA94FFEFCF1ADF0AA11008
:1016A000EECF81E08B0D883018F48093000102C0EA
:1016B00010920001E090000161E08E2D0E945E0317
:1016C00098E0D92ECC24C3948E2D90E09C012A550D
:1016D0003E4F7901D7018C918C2139F0F80164914A
:1016E00070E080E990E00E944606CC0CDA940F5F2F
:1016F0001F4FD110EFCF4092A1015092A2016092F2
:10170000A3017092A4012091B9023091BA0237FF6F
:1017100002C02D5F3F4F359527953595279530931E
:1017200002012093010140E050E060E67AEE80E0A3
:1017300090E00E94C50C2093AC023093AD02409320
:10174000AE025093AF020E94DD0531CDCF93DF93FF
:10175000109204021092030288EE93E0A0E0B0E041
:101760008093050290930602A0930702B0930802AB
:1017700027E031E0309302022093010225EC30E0B3
:1017800030930E0220930D0224EC30E030931002CF
:1017900020930F0220EC30E03093120220931102CC
:1017A00021EC30E0309314022093130222EC30E05D
:1017B000309316022093150226EC30E03093180285
:1017C0002093170210921A0210921B0210921C0210
:1017D00010921D021092A1021092A0028093A20208
:1017E0009093A302A093A402B093A50289E191E093
:1017F00090939F0280939E028BED92E09093C5029E
:101800008093C40288EF92E09093C7028093C6024F
:1018100085E193E09093C9028093C80282E393E04C
:101820009093CB028093CA021092CD021092CC0208
:101830001092CF021092CE021092D1021092D002DA
:101840001092D3021092D2021092D402E4ECF2E091
:1018500080E021913191232B09F05FC08093D40265
:1018600080E48093D50284E08093B00285E0809389
:10187000B10281E08093B202E6E7F2E0E491F0E0A9
:10188000EE0FFF1FE859FD4FA591B491B093B4023C
:10189000A093B302E7E7F2E0E491F0E0EE0FFF1F60
:1018A000E859FD4FC591D491D093B602C093B502CB
:1018B000E8E5F2E094919093B702E9E5F2E08491D3
:1018C0008093B8022091AA023091AB023093C302F8
:1018D0002093C20220EB32E03093AB022093AA02A5
:1018E00020E030E83093BC022093BB022FEF3FE7AB
:1018F0003093BE022093BD021092BA021092B90238
:101900001092BF021092C1021092C002EC91E92322
:1019100049F092E09093C00205C08F5F883009F0D3
:1019200098CF9CCFE881E82329F08091C0028160A4
:101930008093C002209101013091020140E050E00B
:1019400060E67AEE80E090E00E94C50C2093AC0245
:101950003093AD024093AE025093AF02DF91CF912E
:10196000089597FB072E16F4009407D077FD09D051
:101970000E94EA0C07FC05D03EF4909581959F4F9C
:101980000895709561957F4F0895052E97FB1EF47D
:1019900000940E94DC0C57FD07D00E94FE0C07FC4F
:1019A00003D04EF40C94DC0C509540953095219565
:1019B0003F4F4F4F5F4F089590958095709561957B
:1019C0007F4F8F4F9F4F0895EE0FFF1F0590F491AB
:1019D000E02D0994AA1BBB1B51E107C0AA1FBB1F26
:1019E000A617B70710F0A61BB70B881F991F5A95AB
:1019F000A9F780959095BC01CD010895A1E21A2E1A
:101A0000AA1BBB1BFD010DC0AA1FBB1FEE1FFF1FA2
:101A1000A217B307E407F50720F0A21BB30BE40BF2
:101A2000F50B661F771F881F991F1A9469F7609539
:101A30007095809590959B01AC01BD01CF010895F3
:0E1A400081E090E0F8940C94250DF894FFCF0F
:101A4E0007F00000000000030270019A015002CB63
:101A5E0001A901BD01000000000703DA023703AE41
:101A6E0002D202BE02AF024D4944492044656D6F59
:081A7E00005631000D0A0000C2
:00000001FF
